:020000040800F2
:10000000A8A90120CD0200085D5F0008ED5300089B
:10001000515F0008CD0900085D8B0008000000005A
:100020000000000000000000000000000161000866
:100030009D0B000800000000715F0008456100088A
:10004000E7020008E7020008E7020008E7020008EC
:10005000E7020008E7020008E7020008E7020008DC
:10006000E7020008E7020008E7020008E7020008CC
:10007000E7020008E7020008E7020008E7020008BC
:10008000E7020008E7020008E7020008E7020008AC
:10009000E7020008E7020008E7020008E70200089C
:1000A000E7020008E7020008E7020008E70200088C
:1000B000E7020008E7020008E7020008E70200087C
:1000C000E7020008E7020008E7020008E70200086C
:1000D000E7020008E7020008E7020008E70200085C
:1000E000E7020008E7020008E7020008E70200084C
:1000F000E7020008E7020008E7020008E70200083C
:10010000E7020008E7020008E7020008E70200082B
:10011000E7020008E702000839620008E702000869
:10012000E7020008850B0008E7020008E702000864
:10013000E7020008A10B0008E7020008E702000838
:10014000E7020008E7020008E7020008E7020008EB
:10015000E7020008E7020008E7020008E7020008DB
:10016000E7020008E7020008E7020008E7020008CB
:10017000E7020008615F0008790B0008000000003A
:10018000E7020008E7020008E7020008E7020008AB
:10019000E7020008E7020008E7020008E70200089B
:1001A000795900086D590008E702000800F002F8CC
:1001B00000F07DF814A696E8000CB244B344DA458A
:1001C00001D100F074F8BAE80F000FA696E83000ED
:1001D000A5EB040504EB0607AAEB0704A7F101074A
:1001E0004FEA15154FEA3414A4F10104AC4201D3CF
:1001F00000F05DF813F0010F18BFFB1A43F0010384
:1002000000F001F8DBE71847B4DE0800D4DE080090
:100210000A444FF0000C10F8013B13F0070408BF2C
:1002200010F8014B1D1108BF10F8015B641E05D0CA
:1002300010F8016B641E01F8016BF9D113F0080F7F
:100240001EBF10F8014BAD1C0C1B09D16D1E58BF11
:1002500001F801CBFAD505E014F8016B01F8016B48
:100260006D1EF9D59142D6D370470000704700004B
:100270000023002400250026103A28BF78C1FBD8AF
:10028000520728BF30C148BF0B607047752900F086
:100290000581782900F03E81732900F01B8300203E
:1002A00070471FB51AF092FA1FBD10B510BD00F0CF
:1002B00058FB1146FFF7F5FF10F076F800F076FBDB
:1002C00003B4FFF7F2FF03BC00F07AFB0948804754
:1002D00009480047FEE7FEE7FEE7FEE7FEE7FEE728
:1002E000FEE7FEE7FEE7FEE704480549054A064B40
:1002F0007047000025620008AD010008A89F01209A
:10030000A8A90120A8A10120A8A1012053EA020C5C
:1003100000F069802DE9F04B4FF00006002B1FBF65
:10032000B3FA83F503FA05F424FA05F65E4012BF2A
:100330001643B2FA82F502FA05F4C5F120051EBF94
:1003400022FA05FC44EA0C04203556EA044C4FEA34
:10035000144418BF641C4FF000084FF0000990428D
:1003600071EB030C39D3002919BFB1FA81F701FAF7
:1003700007F6B0FA80F700FA07F6C7F120071EBFAC
:1003800020FA07FC46EA0C062037B6FBF4FCA7EB84
:100390000507103F07F01F0BCBF120062CFA06F6DD
:1003A0000CFA0BFB44BFB3460026202FA4BF5E46C9
:1003B0004FF0000B5BEA060C08BF4FF0010B19EB86
:1003C0000B0948EB0608ABFB027C06FB02CC0BFBDF
:1003D00003CCC01B71EB0C01C1E70B460246414642
:1003E0004846BDE8F08B13B5084318BF4FF0FF3007
:1003F0000146AFF30080BDE81C40704770B504466D
:1004000085690068C10601D5302600E02026C007B6
:1004100007D070BDD4E9012130469047206A401CC6
:1004200020626D1EF6D570BD70B5044685690078F2
:10043000C00707D170BDD4E9012120209047206A70
:10044000401C20626D1EF6D570BD70B50C46054689
:10045000012A05D02878800600D5EA69002302E049
:10046000012305E05B1C934202D2E05C0028F9D135
:10047000A869E618C01AA861286A184428622846A4
:10048000FFF7BCFF04E0D5E9012114F8010B904708
:10049000B442F8D32846FFF7C7FF70BD2DE9F041FD
:1004A0000646002410687529314616A510D0AFF312
:1004B0000080002802DA404213A507E031688A076D
:1004C00001D512A502E0490704D511A5012401E0D8
:1004D000AFF3008000210A2206F1240709E0B0FBF7
:1004E000F2FCB0FBF2F302FB1C00303078541846EB
:1004F000491C0028F3D123462A463046BDE8F04186
:1005000000F07DB9000000002D0000002B0000006D
:100510002000000070B504460D4621461068AFF378
:1005200000802188090502D50F4A7A4402E00E4A6C
:100530007A440E32002104F1240305E000F00F0696
:100540000009965D5E54491C0028F7D120780023ED
:10055000000704D5702D02D009B1022311322046C4
:10056000BDE8704000F04BB906A4010040EA010369
:1005700010B59B070FD1042A0DD310C808C9121F4C
:100580009C42F8D020BA19BA884201D9012010BD86
:100590004FF0FF3010BD1AB1D30703D0521C07E053
:1005A000002010BD10F8013B11F8014B1B1B07D1B7
:1005B00010F8013B11F8014B1B1B01D1921EF1D128
:1005C000184610BD032A40F2308010F0030C00F0F2
:1005D000158011F8013BBCF1020F624498BF11F87D
:1005E00001CB00F8013B38BF11F8013BA2F1040236
:1005F00098BF00F801CB38BF00F8013B11F00303AE
:1006000000F06780083AC0F0088051F8043B083ACF
:1006100051F804CBA0E80810F5E7121D5CBF51F8B3
:10062000043B40F8043BAFF30080D20724BF11F82D
:10063000013B11F801CB48BF11F8012B24BF00F892
:10064000013B00F801CB48BF00F8012B7047431A6B
:1006500028BF9A427FF6B6AF10441144032A40F2F5
:10066000268010F0030F1EBF11F8013D521E00F846
:10067000013D10F0030F7FF4F6AF11F0030300F01B
:100680004081083AC0F00B8051F8043D083A51F817
:1006900004CD40F8043D40F804CDFFF7F3BF121D30
:1006A0005CBF51F8043D40F8043DAFF30080D20731
:1006B00024BF11F8013D11F801CD48BF11F8012CFC
:1006C00024BF00F8013D00F801CD48BF00F8012C1F
:1006D000704710B5203AC0F00B80B1E81850A0E880
:1006E0001850B1E81850A0E81850203ABFF4F5AF00
:1006F0005FEA027C24BFB1E81850A0E8185044BF5C
:1007000018C918C0BDE810405FEA827C24BF51F8C8
:10071000043B40F8043B08BF7047D20728BF31F8BC
:10072000023B48BF11F8012B28BF20F8023B48BF0D
:1007300000F8012B704702F0FF0343EA032242EA6C
:10074000024200F024B84FF000020429C0F01280E9
:1007500010F0030C00F01B80CCF1040CBCF1020F74
:1007600018BF00F8012BA8BF20F8022BA1EB0C0149
:1007700000F00DB85FEAC17C24BF00F8012B00F83F
:10078000012B48BF00F8012B70474FF0000200B565
:10079000134694469646203922BFA0E80C50A0E8A4
:1007A0000C50B1F12001BFF4F7AF090728BFA0E852
:1007B0000C5048BF0CC05DF804EB890028BF40F81E
:1007C000042B08BF704748BF20F8022B11F0804F60
:1007D00018BF00F8012B7047704770477047000042
:1007E00000487047E011002010B5FFF7F9FF0068DE
:1007F00010BD10B50446FFF7F3FF046010BD2DE9EE
:10080000F0470D4699469246044600F124080168D7
:10081000880604D5E06921F01001216000E0012084
:10082000A84201DD471B00E00027A1697A1902EB0D
:100830000900081AA0612078C00602D42046FFF7FC
:10084000DDFD002608E0D4E901211AF806009047F2
:10085000206A401C761C20624E45F4DB2078C006DE
:100860000AD52046FFF7CAFD06E0D4E90121302071
:100870009047206A401C2062381EA7F10107F4DC73
:1008800007E0D4E9012118F805009047206A401CD0
:100890002062281EA5F10105F3DC2046FFF7C4FD08
:1008A0002078000602D50220BDE8F0870120FBE792
:1008B00010B5436913B1AFF3008001E0FFF7C5FD48
:1008C000012010BD127800F124010A7000224A7044
:1008D0000122EDE711684FF0FF32E9E7431A28BF24
:1008E0009A427FF6F6AE1044114410F0030F1EBF7B
:1008F00011F8013D521E00F8013D10F0030F7FF486
:10090000F6AF103AC0F00A8010B531E9185020E96E
:100910001850103ABFF4F9AFBDE81040530724BF98
:1009200031E9081020E9081044BF51F8043D40F8AF
:10093000043D12F0030F08BF7047D20728BF31F8FB
:10094000023D48BF11F8012C28BF20F8023D48BFE6
:1009500000F8012C7047000000487047E0110020AB
:1009600070477546FFF7F8FFAE46050069465346E7
:1009700020F00700854618B020B5FFF7B5FCBDE8AC
:1009800020404FF000064FF000074FF000084FF0F6
:10099000000BAC46ACE8C009ACE8C009ACE8C00943
:1009A000ACE8C00921F007018D46704710B5044638
:1009B000AFF300802046BDE81040FFF781BC000087
:1009C00001491820ABBEFEE72600020003200AF012
:1009D0000BF900BFFEE7000021280FD0202819D115
:1009E000072A17D10868D1F8031040F6AC72C2F29A
:1009F0000002C2F80310106000207047072A09D1D6
:100A000040F6AC70C2F20000D0F803200068C1F8D4
:100A1000032008600020704780B50EF06FFC0020B6
:100A200080BD000010B544F29824C2F200042046B4
:100A300001214FF4807202F011FA204602211022A7
:100A400002F00CFA0EF05AFC43F66454C2F20004B1
:100A500042F2F821C2F200012046002205F056FEC3
:100A600041F6F821C2F20001204605F041FE0020C7
:100A700010BD0000B0B5096804460EF0C9FC43F68D
:100A80006455C2F200052846214605F031FE28468D
:100A900005F008FE0020B0BD80B50EF031FF00204B
:100AA00080BD000043F66452C2F20002D2F8BC22BC
:100AB000D2F81432002B1CBF0120704710B543F64A
:100AC0006454C2F200040A460146204605F01EFEA8
:100AD0002046BDE8104005F09DBE0000806B816B94
:100AE000496D02291CBF012180F8251000F050B982
:100AF00010B5846BA36AA06B01680A6863B1A36A2E
:100B0000DB0717D112F4002214D0C968E26A01EBA6
:100B1000C201002216E000BF100319D408680003C8
:100B200018D4E06AD4E90C2303EB80000861A262C8
:100B300010E000BF0A6812030CD40969E26A01EBF5
:100B4000C201012200F038FBA06A0138A06201E076
:100B5000606BC860A06A216B884218BF10BD206816
:100B6000C16841F00101C1600068800744BF0120F5
:100B700084F8250010BD000044F24000C2F20000DD
:100B800000F036B980B509F00BF944F28000C2F2EA
:100B90000000BDE8804000F095BD000070470000F7
:100BA00044F2E000C2F2000000F096BFE0200AF03C
:100BB0001BF872B6FEE700002DE9F0410B680268F1
:100BC000E3B1D1E9073722F4F8424E6A1A433A43B7
:100BD00032430260426847F6FF739A43D1E9013716
:100BE000D1E903651A433A43D1E9054132432A4327
:100BF0002243114341600020BDE8F08147F6FF73B6
:100C000022EA030CD1E90132D1E903E443EA0C03FF
:100C100001F114081A4398E8E00142EA0E02224367
:100C20002A433243496A3A4342EA080211430160C7
:100C30000020BDE8F08100000246406943F6FE73E3
:100C4000984340EA410100205161704770B5044665
:100C50000069154691E84C106FF315006FF01F0105
:100C6000104301EB46111843084340EA4C20206131
:100C700001F0A4F8A169890602D4002070BD00BF6C
:100C8000C5B10646681C10D1A0698006F5D5A069DB
:100C9000800644BFA0695FEA8060EED5A069800647
:100CA000F2D4EAE7A0698006E7D501F087F8801B57
:100CB000A842F7D9032070BD2DE9F0418368AAB39B
:100CC00040F6FF72CFF60F721A40CB684FF2000663
:100CD000CFF6FF764F6906EB03330026CFF6F076AA
:100CE00006EB07571A433A438260C268D1E90037DE
:100CF0008E686FF00F0402F0704204EB07176FF07C
:100D0000FF04013B0D6904EB062600241A43CFF6CD
:100D1000FF7489693A4304EB0545324301392A439C
:100D200042EA0161C1600020BDE8F08103F0704C2F
:100D3000D1E90032D1E902E401F110084FF20001DB
:100D4000013B6FF00F07CFF6FF7198E8600107EBEA
:100D500002126FF0FF0701EB0431002443EA0C0399
:100D600007EB0E27CFF6FF741A4304EB054500246A
:100D70003A43CFF6F074114304EB06562943A8F129
:100D80000104314341EA046181600020BDE8F08143
:100D900044F24001C2F20001884201D0704700BF16
:100DA00041F21C30C2F200008268002A08BF70477E
:100DB000C96B0269114341F00201016170470000F3
:100DC00044F24001C2F20001884218BF704710B5DA
:100DD00041F21C34C2F20004A06830B100F0EEFF12
:100DE0006061E06840F00100E060BDE810407047DD
:100DF00070B50446006840F6DD260569C0F60006B9
:100E0000690717D504214161E06B40F00200E063FF
:100E100084F82510A06B066500F042FC50B1A06B71
:100E2000806B816B496D02291CBF012180F8251060
:100E3000FFF7AEFFA80719D521680222A06B4A610F
:100E4000E16B41F00101E163042184F8251006659E
:100E500000F026FC50B1A06B806B816B496D0229BC
:100E60001CBF012180F82510FFF792FFE80605D589
:100E7000206810214161204600F060F8280705D560
:100E8000206808214161204600F094F9E80708BF76
:100E900070BD21680868800703D5C86820F01E006F
:100EA000C860C86820F001022046CA60BDE87040F2
:100EB000FFF786BF002804BF01207047F0B581B05E
:100EC00090F8251049B9002180F82410044600F05C
:100ED00037F8204600F034F82046022180F825102B
:100EE00090E8065040F6F8740B68102A23EA0403D1
:100EF0000B60D0E90443856943EA0E0343EA040327
:100F0000066A43EA0C030F6843EA050343EA060353
:100F100043EA070343EA02030B6004BFC2698A6124
:100F2000CA6842F01E02CA6000210122C16380F833
:100F3000252001B0BDE8F04008467047704700002A
:100F40002DE9F04786B0044600680021C5F205018E
:100F500000278842CDE90477CDE90277019703D0D5
:100F600006B0BDE8F08700BF43F630000097C4F23A
:100F700002004168002641F0010141604168C4F26D
:100F8000020601F00101009100990097016801AD8E
:100F900041F00101016001684FF0020901F0010117
:100FA00000910099009701684FF0030841F080011B
:100FB000016001684FF00D0A01F080010091009975
:100FC0000097016841F008010160016801F0080123
:100FD000009100990097016841F4807101600068F8
:100FE000294600F48070009000985020019030460F
:100FF000CDE90297CDF81080CDF814A000F008FEDE
:101000004FF4BC40CDE9010903A880E8800506F54E
:10101000E050294600F0FCFD0820CDE9010903A8B5
:1010200080E8800506F54060294600F0F1FDE020EB
:10103000CDE9010903A880E8800506F5005029469E
:1010400000F0E6FD44F2800546F22840C2F20005B9
:10105000C4F202004FF000714FF480624FF48053ED
:1010600085E8830005F114004FF48046C5E903725A
:10107000C8C04FF4403005F12002042182E803018A
:101080002846C5E90B7700F0FFFB002818BFFFF7E3
:101090008DFD4E2005210022A563AC6301F09CFE6E
:1010A0004E2001F087FE06B0BDE8F08770B582B033
:1010B000044690F8240001284FF0020078D04FF049
:1010C000010E84F824E084F82500D4F800C0A06B59
:1010D000DCF80050002645F48045CCF80050DCF8E0
:1010E0000050B6EB134F25F00205CCF80050DCF8A9
:1010F000005041EA0501CCF8001040F6F12140F61D
:10110000DD25C0F60001C0F60005C163C0E9135635
:10111000A662266304D10CF1280100F067FC3FE0D1
:101120004164C4F828E0E3626263E16AB1F5803F9C
:1011300028D30021E36A5B08E362A36A5B00A36231
:10114000E36AB3F5803F1DD3E36A5B08E362A36AF9
:101150005B00A362E36AB3F5803F13D3E36A5B08E5
:10116000E362A36A5B00A362E36AB3F5803F09D33D
:10117000E36A5B08E362A36A5B00A362E36AB1EB24
:10118000134FD7D1A16A0239A162A16A2163E16A32
:10119000E66A02EB81030CF12801009600F016F8D4
:1011A00021680A6842F001020A60002184F82410D4
:1011B00002B070BD70470000D0F800C010230020BE
:1011C000002A08BF0C234CF80310704770B58568DF
:1011D000802D05D14FF480714165012070BD00BFA5
:1011E000C46B002C50D0446C002C4DD0C46C002C2F
:1011F0004AD090F83440012C4DD0012480F834407E
:1012000090F83540012C43D1022480F83540002469
:101210004465D0F800C0049CDCF8006046F20C4E37
:1012200046F48026C4F2020ECCF80060CCF81030F0
:101230000B46CCF80440402D04BF13460A460EF17D
:101240004C018C45CCF80830CCF80C2026D946F25D
:101250008841C4F202018C4564D046F27041C4F268
:1012600002018C4572D12021CEF800101021CEF859
:1012700000100821CEF800100421CEF80010012142
:10128000CEF80010EEE100BF40214165012070BDA5
:10129000002180F83410022070BD00BF46F2080122
:1012A000C4F2020101F1B002944519D946F210438B
:1012B000C4F2020346F228429C45C4F2020200F046
:1012C0008780944500F0808046F24046C4F20206D2
:1012D000B4450CBF4FF400144FF0006479E000BF38
:1012E00001F1500246F2100E46F270039445C4F22A
:1012F000020EC4F2020353D99C4500F0CF8046F29F
:101300008804C4F20204A44500F0C08046F2A004A0
:10131000C4F20204A4450CBF4FF400144FF0006463
:101320004C60C1E04FF40061CEF800104FF48061D2
:10133000CEF800104FF40071CEF800104FF4807119
:10134000CEF800104021CEF800108BE10EF1940190
:101350004FF000628C4508BF4FF40012CEF8002019
:101360004FF0806208BF4FF48012CEF800204FF09B
:1013700000728C4508BF4FF40022CEF800204FF0D9
:10138000807208BF4FF48022CEF800204FF4800214
:101390008C4508BF4FF48032CEF8002062E100BFD8
:1013A000F44500F07F8046F22804C4F20204A4450C
:1013B00070D046F24004C4F20204A4450CBF4FF4BE
:1013C00000144FF000646EE04FF4006401E000BFD1
:1013D00020249C45C1F8004410D094450AD046F220
:1013E0004046C4F20206B4450CBF4FF480144FF0DF
:1013F000806404E04FF4806401E000BF10249C4549
:10140000C1F8004410D094450AD046F24046C4F2D8
:101410000206B4450CBF4FF400244FF0007404E002
:101420004FF4007401E000BF08249C45C1F800445B
:1014300010D094450AD046F24046C4F20206B445A4
:101440000CBF4FF480244FF0807404E04FF480749C
:1014500001E000BF04249C45C1F8004412D094452B
:101460000CD046F24042C4F2020294450CBF4FF445
:1014700080324FF48002C1F80024F3E04022C1F82A
:101480000024EFE00122C1F80024EBE04FF40064F7
:101490004C6009E04FF4006405E000BF20244C607C
:1014A00002E000BF20240C60944513D99C452DD048
:1014B00046F28804C4F20204A4451FD046F2A004F8
:1014C000C4F20204A4450CBF4FF480144FF08064B2
:1014D0004C6021E0F4451DD046F22804C4F2020419
:1014E000A4450FD046F24004C4F20204A4450CBF48
:1014F0004FF480144FF080640DE000BF4FF480641F
:101500004C6009E04FF4806405E000BF10244C609B
:1015100002E000BF10240C60944513D99C452DD0E7
:1015200046F28804C4F20204A4451FD046F2A00487
:10153000C4F20204A4450CBF4FF400244FF0007421
:101540004C6021E0F4451DD046F22804C4F20204A8
:10155000A4450FD046F24004C4F20204A4450CBFD7
:101560004FF400244FF000740DE000BF4FF40074FE
:101570004C6009E04FF4007405E000BF08244C60A3
:1015800002E000BF08240C60944513D99C452DD07F
:1015900046F28804C4F20204A4451FD046F2A00417
:1015A000C4F20204A4450CBF4FF480244FF08074B1
:1015B0004C6021E0F4451DD046F22804C4F2020438
:1015C000A4450FD046F24004C4F20204A4450CBF67
:1015D0004FF480244FF080740DE000BF4FF480740E
:1015E0004C6009E04FF4807405E000BF04244C60B7
:1015F00002E000BF04240C60944513D99C452BD015
:1016000046F28802C4F2020294451FD046F2A002BC
:10161000C4F2020294450CBF4FF480324FF48002B2
:101620004A601FE0F4451BD046F22802C4F20202D1
:1016300094450FD046F24002C4F2020294450CBF1A
:101640004FF480324FF480020BE000BF40224A602A
:1016500008E000BF402204E001224A6002E000BF2F
:1016600001220A60DCF8001041F01601CCF80010ED
:10167000DCF8141041F08001CCF81410016C09B9A9
:10168000806C28B1DCF8000040F00800CCF80000C5
:10169000DCF8000040F00100CCF80000002070BD34
:1016A00090F83510022909D1052180F8351000681D
:1016B000016821F00101016000207047802141652F
:1016C00001207047F0B581B00021009140F6D07143
:1016D000C2F200010B68D0E9166148F2B51537680F
:1016E0000822C1F64E358A403A42A3FB05350CD09C
:1016F00003681C68640708D51C6824F004041C6097
:10170000B260426D42F00102426501228A403A42D3
:1017100008D003685B691B0604D5B260426D42F0D5
:101720000202426504228A403A4208D003681B68DC
:101730009B0704D5B260426D42F00402426510225C
:101740008A403A4219D001680B681B0715D5B26070
:101750000B680A685B0309D4D20509D40A6822F031
:1017600008020A60016C29B907E000BF110341D4E7
:10177000016C11B1044688472046C26D202101FA50
:1017800002F33B4243D001680F68FF063FD5B360C8
:1017900090F835700B68052F1CD123F016030B60F1
:1017A0004B6923F080034B61036C0BB9836C1BB155
:1017B0000B6823F008030B603F219140B1600121C9
:1017C00080F83510016D0022002980F8342054D1B2
:1017D00058E000BF0A685B0310D4D20512D40A682F
:1017E00022F010020A60012180F83510002180F8F3
:1017F000341007E0816C0029BCD1BEE7110301D48D
:10180000416C00E0C16B11B1044688472046416D30
:10181000C1B3416DC9072ED0052180F8351001688C
:10182000AA0A0B6823F001030B60009B013393426B
:1018300000931AD80B68DB0717D0009B0133934243
:10184000009312D80B68DB070FD0009B0133934243
:1018500000930AD80B68DB0707D0009B0133934243
:10186000009302D80B68DB07DFD1012180F8351027
:10187000002180F83410C16C21B101B0BDE8F04006
:10188000084700BF01B0F0BD2DE9F041044600F06B
:1018900095FAECB10546022084F835000020216855
:1018A00084F83400086820F00100086021680868A6
:1018B000C00711D000F082FA401B0528F6D9032595
:1018C00020230320636584F83550BDE8F08100BF14
:1018D0000120BDE8F08100BF086848F23F02CFF266
:1018E0001002D4E9013500EA020C04F10C0898E872
:1018F000C10143EA0C032B431843D4E9072E3043BC
:1019000038431043626A40EA0E00042A40EA0803A2
:101910001CD1206BD4E90A2E40EA0E00184308605F
:101920004869BEF1000F20F0030040EA020040F0D9
:10193000040C11D0B8F5005F36D0B8F1000F45D1D6
:10194000022A46D0012A3BD032B942E00B604869F6
:1019500020F0070040EA020C01F0F8004AF6AB2242
:101960001038CAF6AA22A0FB02231A094DF6380342
:10197000C1F814C0C0F601039A5C40F2FF335F283F
:101980004FF03F0021EA030100FA02F088BF043162
:10199000C4E916128860002301250020636584F8DD
:1019A0003550BDE8F08100BF032AD5D8012540237A
:1019B0000120DFE802F0030E030500BF82E700BF4D
:1019C000AEF1C070B0FA80F0400904E0032A04D3FD
:1019D000C2D1CEF300600028BED0012540230120F3
:1019E000636584F83550BDE8F081000090F834C09C
:1019F000BCF1010F04BF0220704770B54FF0010C1D
:101A000080F834C0D0F858E090F835C0BCF1010F30
:101A100038D14FF0020C80F835C04FF0000CC0F800
:101A200054C0D0F800C08468056CC06DDCF800605C
:101A3000402C26F48026CCF80060CCF804300B460D
:101A400004BF13460A463F2101FA00F0CCF80830E3
:101A5000CCF80C20CEF80800DCF8000040F01600AE
:101A6000CCF800002DB1DCF8000040F00800CCF804
:101A70000000DCF8000040F00100CCF8000000207D
:101A800070BD00BF002180F83410022070BD00003E
:101A9000B0B5044600F092F9054640F20000C2F2EB
:101AA00000000078611C18BF044400BF00F086F9F4
:101AB000401BA042FAD3B0BD44F2E001C2F20001E3
:101AC000884218BF704742F69C60C2F20000416E27
:101AD00001314166704700002DE9F04381B0016893
:101AE00043F6144841F214020446C4F2010888186F
:101AF0008F6B8D588668D8F80090690609D516F066
:101B0000400106D04021C0F201010160204600F0F2
:101B10005DF8E80718BF16F0010003D128040CD4C3
:101B200033E000BF206841F214014FF0011242502F
:101B3000204600F05BF8280427D516F4004024D096
:101B40002068D4F8881041F2140241F00801C4F86A
:101B500088108158AB04104406D448F280621140CA
:101B6000C4F88C1002600DE042F20002C0F27E0266
:101B70001140C4F88C10816821F4C0318160E020EC
:101B8000C4F884002046FFF797FF38070BD520687C
:101B9000C06A00F06000C4F89400204600F014F819
:101BA0000020C4F894005FEA09305CBF01B0BDE8D2
:101BB000F0834FF400212046C8F8001001B0BDE8C2
:101BC000F04300F023B800007047000044F2E00149
:101BD000C2F20001884218BF704742F69C60C2F210
:101BE0000000C16D0131C1657047000044F2E001A1
:101BF000C2F20001884218BF704742F69C60C2F2F0
:101C00000000016E0131016670470000704700005E
:101C10002DE9F04F83B000F1200200F13E4742F27F
:101C20000045009207F1FF77C4F202050A224FEA4D
:101C3000B726A84208BF092200254FF000084FF040
:101C40000009092E38BF4FEAB72201920AE000BF0F
:101C500009F1010908F10208B9F1100F05F10405B5
:101C600000F0A2800F68012202FA09FE17EA0E0AAC
:101C7000EED0D1F804C003220CF003077E1E02FA56
:101C800008F4012E6FEA040B12D88468CE6804EAC7
:101C90000B0406FA08F634438460446824EA0E060E
:101CA000CCF3001404FA09F42643466004E000BFB4
:101CB000032F01D103271EE0C6688C6806EA0B06D5
:101CC00004FA08F42643022FC66014D16FF0030211
:101CD000009E02EA590756F807C005F01C040F22BF
:101CE0000B69A2402CEA0202A3401A43F251D1F838
:101CF00004C00CF00307026807FA08F302EA0B02BB
:101D00001A431CF4403F0260A2D0002243F6440371
:101D10000292C4F202031A6843F6004442F480427D
:101D20001A601A68C4F2010402F480420292029A14
:101D300029F003024FF6084C2244CFF6FF7C52F8FC
:101D40000C3005F00C070F26BE40B343019E06FA87
:101D500007F73B4342F80C30A2684B6842EA0A0797
:101D600043F60C4CDE0258BF22EA0A07A760C4F211
:101D7000010CDCF800209E0242EA0A0758BF22EA62
:101D80000A07CCF8007062689E0342EA0A0758BF4F
:101D900022EA0A0767602268DB0342EA0A0758BFA3
:101DA00022EA0A07276053E703B0BDE8F08F00007E
:101DB000002A08BF090481617047000049F6A800A5
:101DC000C2F201000068704747F61020C1F6FF70AC
:101DD0000068704747F61420C1F6FF70006870472E
:101DE00047F61820C1F6FF700068704790F83D2054
:101DF000202A1CBF02207047242280F83D20026860
:101E0000136823F001031360536A23F01003536235
:101E1000536A19435162116841F001011160202198
:101E200080F83D100020704790F83D20202A1CBF0C
:101E300002207047242280F83D20026889B213688E
:101E400023F001031360D2F824C04FF6F07303EAC5
:101E50000C0319435162116841F001011160202106
:101E600080F83D1000207047002804BF0120704713
:101E7000F0B581B0044690F83D0028B9002084F800
:101E80003C00204600F0CCFB242084F83D00206874
:101E9000016821F001010160016841F40041016025
:101EA000016821F40041016002F0E2F9636848F240
:101EB000A16CC0F2010C40F60011C0F23D01634577
:101EC0003CBF48F28041C0F21E01884202D201208C
:101ED00001B0F0BD4DF68361C4F21B31A0FB0112CD
:101EE0002168970CD1F804E04FF496762EF03F0568
:101EF00045EA92454D60774348F638160D6AC0F2C0
:101F00004106A7FB067625F03F07634538BF960CD0
:101F1000721C3A430A62CA6948F2A0664CF6FF771F
:101F2000C0F20106B34222EA07020BD801385B0077
:101F3000B0FBF3F001306FF31F30042898BF04208A
:101F40001BE000BFA768013857B119277B43B0FBDE
:101F5000F3F001306FF31F3070B100F5804007E0FF
:101F600003EB4303B0FBF3F001306FF31F3018B104
:101F700000F5004001E000BF01201043C86108687F
:101F8000D4E9072320F0C000104318430860886894
:101F900048F2FF3204F10C0790438CCF18431043F2
:101FA000A6698860C86820F0FF0038433043C860E5
:101FB000086840F00100086000202021206484F8B7
:101FC0003D10206384F83E0001B0F0BD2DE9F043E0
:101FD00083B01F46164689460446FFF7EFFE94F885
:101FE0003D10202924D10546206800BF816989075A
:101FF0001AD5FFF7E3FE411B20681A29F6D3816941
:102000008907F3D500202021206384F83D1084F84F
:102010003E00216C41F02001216484F83C00022044
:1020200003B0BDE8F08300BF94F83C10012903D150
:10203000022003B0BDE8F083012184F83C10016860
:10204000C90703D1016841F001010160016840F254
:10205000040821F400610160222184F83D10102160
:1020600084F83E100021216466626785618DC0F2AC
:1020700001082185A8F500310439E162E16A0268AE
:102080000A9F42F4806211F5803F026018BF012967
:1020900042D1016841F48071016020464FF0011186
:1020A00000223B46009503F069FA58B120680068A9
:1020B000C00544BF4FF400702064012003B0BDE8A8
:1020C000F08300BF2069B0F5804F2BD149F00100AB
:1020D000C0B221683A460861A8F1020120462B46A9
:1020E00003F032FB0028E8D1208D00285AD00228C6
:1020F0004ED001286ED121680A6822F480620A60FD
:10210000002202924A6902928A690292029A0A683D
:1021100042F400720A6078E00829BAD0216B1129D4
:10212000B7D0BAE7062000EAD916206806F1F00118
:10213000016108F1040120463A462B4603F004FBF6
:102140000028BAD120685FFA89F10161A8F1020183
:1021500020463A462B4603F0F7FA0028ADD100207E
:1021600002902068002241693B46029181690291F8
:102170000299016841F48071016020464FF001111D
:10218000009503F0FBF9002890D146F0F100A0E79C
:1021900021680A6822F480620A600A6842F40062D8
:1021A0001CE000BF00200290206841690291816913
:1021B00002910299016841F400710160202084F8C5
:1021C0003D00002084F83E0084F83C0003B0BDE8E8
:1021D000F08300BF21680A6842F480620A6000222E
:1021E00002924A6902928969029102990DE000BF48
:1021F00010690870606A218D01306062481E208578
:10220000618D013961850104D8D080B203280FD8CF
:1022100002284AD001282DD1204639462A4603F00B
:10222000FFFA00287FF449AF2068616A0069E0E79F
:10223000204639462A4603F0F3FA00287FF43DAFE2
:102240002068616A00690870606A2268411C208DFC
:10225000616201382085638D013B638553695B07AB
:10226000D1D580B20328C3D1106820F480601060FB
:10227000BEE700BF2046414600223B46009503F0E2
:102280007DF900287FF419AF2068616A026822F4A2
:102290008062026000690870606A218D01306062AE
:1022A000481E2085608D0138608520464146002209
:1022B0003B46009503F062F900287FF4FEAE2068EB
:1022C000616A026842F40072026000690870606A24
:1022D0002268411C6162218D01392185618D01399E
:1022E00061851169417085E72DE9F04383B01E4691
:1022F000174689460446FFF761FD94F83D102029F2
:1023000024D10546206800BF816989071AD5FFF7E7
:1023100055FD411B20681A29F6D381698907F3D539
:1023200000202021206384F83D1084F83E00216CB9
:1023300041F02001216484F83C00022003B0BDE894
:10234000F08300BF94F83C10012903D1022003B0B0
:10235000BDE8F083012184F83C100168C90703D16E
:10236000016841F001010160016840F2020821F4B6
:1023700000610160212184F83D10102184F83E1095
:102380000021216467626685618DC0F201082185A4
:10239000A8F10211E162E16A0A9E11F5803F18BFBF
:1023A00001291DD1016841F48071016020464FF080
:1023B000011100223346009503F0E0F850B1206887
:1023C0000068C00544BF4FF400702064012003B0D2
:1023D000BDE8F0832069B0F5804F07D1FE2015E0FD
:1023E0000829DFD0216B1229DCD0DFE7062000EAC4
:1023F000D9102168F030086108F106012046324604
:102400002B4603F0A1F90028E0D1FF20216800EA63
:10241000090008612046414632462B4603F094F9F4
:102420000028D3D100200290206841690291806980
:102430000290029806E000BF204631462A4603F08B
:102440003FF818BB208D68B3204631462A4603F07A
:102450002FFAD8B9606A2168024612F8013B0B6175
:102460006262628D013A6285228D531E23854F6917
:102470007F07E1D51B04DFD0437802300B61606237
:10248000608D01386085901E2085D5E7206C04287A
:102490009CD12068016841F400710160012003B003
:1024A000BDE8F0832068016841F4007101602020DC
:1024B00084F83D00002084F83E0084F83C0003B01E
:1024C000BDE8F0832DE9F04383B0994616460F46E8
:1024D0000446FFF773FC94F83D10202924D10546EB
:1024E000206800BF816989071AD5FFF767FC411B87
:1024F00020681A29F6D381698907F3D500202021A5
:10250000206384F83D1084F83E00216C41F02001E6
:10251000216484F83C00022003B0BDE8F08300BFD2
:1025200094F83C10012903D1022003B0BDE8F083E8
:10253000012284F83C200368DDE90B180A9ADB07C6
:1025400003D1036843F001030360036823F40063CD
:102550000360212084F83D00402084F83E000020E4
:10256000206462626185608D394620850020CFF647
:10257000FF70E062204632464B46CDE9008502F00E
:102580003BFF18B1012003B0BDE8F083208D98B95E
:10259000204641462A4602F093FF88B3206C042867
:1025A000F0D12068016841F400710160012003B09E
:1025B000BDE8F0830004EBD0204641462A4603F0F4
:1025C00077F90028EAD1616A2268084610F8013BD1
:1025D0001361238D6062581E2085678D013F6785DA
:1025E00057697F07E6D50704E4D048781061881C56
:1025F0006062981E2085618D01396185DAE700BF30
:102600002068016841F400710160202084F83D00D9
:10261000002084F83E0084F83C0003B0BDE8F0835D
:10262000B0B586B045F200410068C4F20001002454
:1026300088420594CDE903440294019402D006B087
:10264000B0BD00BF43F630050094C4F2020528680F
:1026500040F002002860286800F002000090009816
:10266000C02001901220CDE9020403200490042030
:10267000059001F5D83001A9FFF7CAFA009428693E
:1026800040F400102861286900F4001000900098C0
:1026900006B0B0BD002804BF0120704770B50446E5
:1026A0000068D4E901124CF6CC43036045F255535F
:1026B000036041608260FFF781FB2168CA6892076E
:1026C00012D0054641F6020603E000BFC868800745
:1026D0000AD0FFF773FB401B2168B042F6D3C868ED
:1026E0008007F3D0032070BD4AF6AA2008600020BE
:1026F00070BD000001684AF6AA2200200A607047F7
:1027000040F2000049F6A801C2F20000C2F2010145
:1027100000780A68104408607047000080B543F6EE
:102720000040C4F20200016841F4007101600168D8
:1027300041F480610160016841F48071016003200F
:1027400000F076FB0F2000F005F800F0F7FA00200B
:1027500080BD000070B586B0002543F640010195AC
:10276000C4F202010A68044642F010020A600968D5
:1027700001A801F0100101910199694601F052FD93
:10278000049E002E18BF012601F072FD4DF68361F4
:10279000B040C4F21B31A0FB01014FF0FF3000EB51
:1027A000914144F6080041F20002C2F20000C4F276
:1027B000000240F2E733C0E90021C0E9025305619D
:1027C000856102F0D3FC08B106B070BD44F6080084
:1027D000C2F2000002F0FAFC0028F5D1362000F029
:1027E000E9FA0F2C0CD836202146002200F0F4FA2A
:1027F00040F204010020C2F200010C6006B070BD7E
:10280000012006B070BD000090F8A030012B4FF001
:10281000020331D02DE9F0414FF0010880F8A0808B
:1028200080F8A130342302FB0303D1E900CED1E9C3
:102830000267D1E90454C3E91067C3E91254C3E93C
:102840000ECED1E906CED1E90854D1E90A67C3E931
:102850001654C3E91867C3E914CE0F6B04469F668C
:1028600003F090F820680023C0F8248084F8A18049
:1028700084F8A030BDE8F0411846704744F2F011EA
:10288000C2F20001884218BF704742F6FC40C2F213
:102890000000016C013101647047000070B504460E
:1028A0000068866B456B710716D515F0040113D0CF
:1028B000416B21F0040141630421C163D4F8A400F9
:1028C00040F00100C4F8A400002084F8A11084F8AE
:1028D000A0002046FFF7D2FFB00718D515F0020080
:1028E00015D02068416B21F0020141630221C163D0
:1028F000D4F8A40040F00200C4F8A400042084F836
:10290000A100002084F8A0002046FFF7B7FFF007E1
:1029100018BF15F001000ED02068416B21F00101B5
:1029200041630121C163002084F8A11084F8A00054
:10293000204600F075F8300758BF70BD15F008004C
:1029400012D02068416B21F0080141630821C16366
:102950000120002184F8A100204684F8A010BDE8E1
:10296000704000F0AFB900BF70BD0000002804BF88
:102970000120704710B590F8A11031B9002180F8FE
:10298000A010044600F04EF82046022180F8A11065
:10299000D0E9001CD0E902348A6922F070428A61D1
:1029A00043EA0C02036922438C691A4322438A6179
:1029B000D0E9052343EA02428A60D0E9072343EACB
:1029C0000242CA60D0E9092343EA02420A61D0E91F
:1029D0000B2343EA02424A6190F8352090F83630E2
:1029E000CC6A1B0404F07F44CC6243EA022290F8D4
:1029F0003430CC6A1A442243CA624A6B42F006025F
:102A00004A638A6942F001028A6100210122C0F80A
:102A1000A41080F8A120BDE81040084670470000CF
:102A2000704700002DE9F04F93B00546002012904A
:102A3000CDE91000CDE90E0002A840F200480430B4
:102A40002C21C4F20208FDF7A0FE2868A8F51C415D
:102A5000884203D013B0BDE8F08F00BF0820029079
:102A60004FF4C0700690042008904FF480300B9013
:102A700002A801F005FA002818BFFEF797F8002712
:102A800043F630000197C4F2020041690EAD41F0F7
:102A90008061416141694FF0020901F0806101915B
:102AA000019901970168032441F010010160016858
:102AB0004FF00E0A01F01001019101990197016890
:102AC00041F480710160016801F480710191019904
:102AD0000197016841F020010160016801F02001C7
:102AE000019101990197016841F08001016001683D
:102AF00001F08001019101990197016841F0010104
:102B00000160016801F001010191019901970168DB
:102B100041F002010160016801F002010191019997
:102B20000197016841F040010160016801F0400136
:102B3000019101990197016841F004010160016868
:102B400001F00401019101990197016841F0080128
:102B500001600068294600F008000190019870208B
:102B60000E9008F54060CDE90F971194CDF848A07C
:102B7000FFF74EF840F21560CDE90E0908F5E05078
:102B80002946CDE91074CDF848A0FFF741F84FF47D
:102B90008060CDE90E0908F580502946CDE9107412
:102BA000CDF848A0FFF734F84AF20C10CDE90E0931
:102BB00008F5C0502946CDE91074CDF848A0FFF7BC
:102BC00027F841F60800CDE90E09A8F580602946EE
:102BD000CDE91074CDF848A0FFF71AF84FF0090BB3
:102BE00040462946CDE90E49CDE91074CDF848B0EC
:102BF000FFF70EF84FF4C65008F5A056CDE90E09C0
:102C000030462946CDE91074CDF848A0FFF700F80A
:102C10008020CDE90E0908F580602946CDE91074C1
:102C2000CDF848A0FEF7F4FF4020CDE90E0908F5E5
:102C300000602946CDE91074CDF848A0FEF7E8FF02
:102C40004FF48060CDE90E0930462946CDE9107475
:102C5000CDF848B0FEF7DCFF4FF44070CDE90E0927
:102C600040462946CDE91074CDF848A0FEF7D0FFC4
:102C700058200521002200F0AFF8582000F09AF803
:102C800059200521002200F0A7F8592000F092F801
:102C900013B0BDE8F08F000090F8A020012A4FF09B
:102CA00002020DD080F8A1200268536B43F00803A4
:102CB000536351620121002280F8A11080F8A02006
:102CC0001046704744F2F011C2F20001884201D070
:102CD000704700BF41F21C30C2F20000C1690029F8
:102CE00008BF704746F6AC01C4F2010109680162F1
:102CF000BFF35F8FC16941627047000090F8A03058
:102D0000012B4FF0020316D0B0B5342402FB0404AB
:102D1000012580F8A05080F8A13004F13803E16566
:102D20001946044602F02EFE002384F8A15084F8D0
:102D3000A030BDE8B04018467047000080B582B0B2
:102D4000002043F640010190C4F202014A6842F4B7
:102D500080424A604A6802F480420192019A0090DF
:102D60000868002240F0805008600868052100F0E3
:102D70008050009000986FF0040000F02DF86FF084
:102D800001000F21002202B0BDE8804000F024B80D
:102D9000002848BF704700F01F01012202FA01F12C
:102DA0001C2202EAD0004EF28022CEF200028150B4
:102DB00070470000002848BF704700F01F01012243
:102DC00002FA01F11C2202EAD0004EF20012CEF209
:102DD000000281507047000010B54EF60C5CCEF238
:102DE000000CDCF80030C3F3022E8EF00704042C34
:102DF00028BF0424BEF103034FF0FF3E0EFA04F493
:102E000038BF0023A14399400EFA03F39A431143BC
:102E100000F00F0200F160430901043A03F5644336
:102E20006244002848BF02F10C03197010BD000075
:102E30004EF60C51CEF200010A684FF6FF031A401D
:102E400060F30A2242F0806040F0FD700860704735
:102E50007047000002680020516270472DE9F04180
:102E6000D0F80080D8F8243091B1D8F82870B1F1AA
:102E7000010C03EB17414FD05FFA8CF708F5827312
:102E8000042F0CF0030E0BD2002700242BE000BF10
:102E900043EA02410020C8F82810BDE8F08100BFD5
:102EA0000CF0FC0508F1F406002400BF56F8107F72
:102EB00044F0020001EB174144F00107FFB253F860
:102EC0002770C0B253F8200001EB174101EB10400E
:102ED00044F00301C9B253F821100434E7B2AF4201
:102EE00000EB1141E2D1BEF1000F15D053F82700DD
:102EF000BEF1010F01EB10410ED0601CC0B253F8BF
:102F00002000BEF1020F01EB104105D0A01CC0B2A1
:102F100053F8200001EB104141EA024008EB8C011C
:102F2000C1F804010020BDE8F0810000D0F8E00401
:102F300003F0A8BF01EBC102D0F8E03400EB82003F
:102F4000026A184603F002BF01EBC102D0F8E03478
:102F500000EB8200D0F86022184603F055BF000055
:102F6000D0F8E00403F090BF10B54FFA81FC4FF4A5
:102F7000157201F00F0EBCF1000F48BF142290F83B
:102F8000944402440EEBCE034FEAD11C02EB8301C2
:102F9000012C81F801C002F823E004BF022010BD1B
:102FA0000268012380F894340446104604F06CFD56
:102FB000002084F8940410BDB0B5037901F00F022D
:102FC0009A4284BF0120B0BD4BB24FF41574002B60
:102FD00048BF142400EB040E90F8944402EBC203A3
:102FE0004FEAD11C0EEB8301012C4FF0000481F855
:102FF00001C08C700EF8232004BF0220B0BD02680F
:10300000012380F894340546104605F031F8204637
:1030100085F89444B0BD000001F00F0101EBC1013F
:1030200000EB8100D0F868027047000010B54FFA3D
:1030300081FE01F00F0CBEF1000F6FF3DF220CEBED
:10304000CC010DD400EB810E00240EF515718EF825
:1030500055428EF854C2CEF85C228EF8583209E000
:1030600000EB810101F814CF01244C708A600B71D0
:10307000A1F81AC0022B04BF00224A7190F89424D0
:10308000012A04BF022010BD0268012380F8943495
:103090000446104604F06AFB002084F8940410BD36
:1030A00010B501F00F0E0EEBCE0100EB81044FF0D6
:1030B000000CC4F868C284F855C290F806C004F544
:1030C0001571C4F86022C4F86432BCF1010F84F8B1
:1030D00054E208BFCA610068624605F013F8002098
:1030E00010BD0000B0B5027901F00F0494424FF01A
:1030F00001022CD84BB24FF41575002B48BF142594
:103100004FEAD11C48BF2146054401EBC10305EB42
:10311000830181F801C090F894C48A70BCF1010F5A
:1031200005F8234004BF0220B0BD02680123054614
:1031300080F89434104604F0C5FF2CB92868A979AA
:1031400005F29C4204F066FF002285F894241046A4
:10315000B0BD000001F00F0C0CEBCC0100EB8101C5
:1031600001F814CF4FF0000C0B618379C1F814C043
:103170004FF0010CCA60012B81F801C008BFCA6181
:1031800080B500681A4604F0BDFF002080BD000035
:103190002DE9F04F87B005688246284605F0CEF944
:1031A00010B107B0BDE8F08FDAF8000005F0F4F9CF
:1031B0000028F6D0D5F80808C0F30D21DAF8000091
:1031C000CAF8D41405F0E8F90146DAF800008907D6
:1031D00003D5416901F00201416105F500610491E7
:1031E00005F0DAF90146DAF80000C906059535D58B
:1031F000816921F0100181612C6A04F00F0000EB5D
:10320000C0000AEB8001C4F34340062801F51575A0
:1032100012D002281BD147F6F07014EA000616D02F
:10322000E96834090598224605F0BAF9E86800EB28
:103230001610E86008E000BF05980AF29C410822D9
:1032400005F0AEF9C4F30A14686920446861DAF83D
:103250000000816941F010018161059D05F09CF934
:10326000000340F1F180DAF8000005F073F900285E
:1032700000F0EA8006460AF29C404FF430680024D1
:103280004FF0000B069019E005EB08000221816069
:10329000B80642BF05EB080020218160B80442BF98
:1032A00005EB08004FF4005181600BF1010B76082B
:1032B00008F1200804F1240400F0C680F007F4D0DF
:1032C000DAF800005FFA8BF9494605F05DF9074628
:1032D000C00760D005EB080001218160DAF800002A
:1032E00008EB0001036C8A689AF80650012D25D17D
:1032F000150733D4950600F19F8043F20B05C4F601
:103300005475AB42059D02D312F4004230D10AEB52
:103310000402D2F8743209696FF3DF41A3EB0101B3
:10332000C2F868129CBBD2F86432002B00F08A808D
:10333000D2F860020844C2F8600228E043F20B05AC
:10334000C4F65475FF35AB4218D1059D10040FD457
:10335000900644BF2020886019E000BF43F20B00B4
:10336000C4F65470059D834215D312F4004012D068
:103370004FF40040886038070FD43DE0059D34B914
:10338000DAF8641219B90021069A04F043FE504697
:103390004946FFF7D9FD38072ED505EB080008216F
:1033A0008160DAF8000043F20B02056C404481684A
:1033B000C4F6547295420BD311F4004108D04FF477
:1033C00000418160504600F019FD059D0AE000BFF4
:1033D000504600F013FD43F20B00C4F654708542D2
:1033E000059D09D39AF80600012805D1DAF80000F6
:1033F000069A012104F00EFEF80642BF05EB080014
:1034000010218160B8077FF543AF6869000604D5D5
:103410000499486840F4806048600AEB040090F822
:10342000571201297FF430AF002180F8571250461F
:10343000494600F031FB27E720208860059D3807CA
:10344000ABD4D9E701219FE7DAF80000CDF818A046
:1034500005F0A2F8400340F1D3800698006805F01B
:1034600071F8002800F0CC800646069805F5106932
:1034700000F1140100F29C40002703910190CDF867
:10348000089004E0760807F1010700F0B980F00722
:10349000F8D006985FFA87FA0068514605F062F89E
:1034A0000446C00726D0049A07F00F00516B012391
:1034B00003FA00F021EA0000506309EB4710836033
:1034C00006988079012811D1039907EBC70001EB19
:1034D0008000D0E902121144C1603FB9006928B9E7
:1034E0000698019A0068012104F094FD069851465F
:1034F000FFF720FD200742BF09EB4710082181603C
:10350000E00642BF09EB471010218160600642BF10
:1035100009EB471040218160A00716D5284639469F
:1035200004F09EFF039907EBC70001EB800010F841
:10353000031F012905D1002101700698514600F0B2
:10354000A7FA09EB47100221816020069AD503995A
:1035500007EBC70001EB8008D8E90420824291D331
:103560000699D8F808300C68111A994238BF0B46F2
:1035700004EB4711D1F818C903F1030E1FFA8CF3BD
:10358000B3EB9E0F2DD301F5106900BFD8F81020C2
:10359000824224D9101A069AD8E902B19579584581
:1035A00038BF83461FFA8BF3204652460095059D8F
:1035B00005F09EFAD8F80C00D8F814105844C8F852
:1035C0000C0001EB0B00C8F81400D9F818100BF12F
:1035D000030289B2B1EB920FD8D2D8F81020DDF8EF
:1035E000089082423FF64EAF07F00F00D4F834182F
:1035F000012202FA00F021EA0000C4F8340841E791
:10360000DDF81890D9F8000004F0C6FF002821D496
:10361000D9F8000004F0C0FF00053AD4D9F8000042
:1036200004F0BAFFC00445D50499486820F00100B1
:103630004860D9F80000102104F012FF99F8040046
:10364000010600F0EC80C1B2042900F0030035D27D
:1036500000219AE00499486820F00100486099F838
:10366000CC04012808D1002089F8CC044846002168
:10367000FFF7EEFB03E000BF484600F0A3FBD9F8DC
:103680000000416901F00041416104F085FF00053F
:10369000C4D504988068C00702D0484600F0D6FB25
:1036A000D9F80000416901F40061416104F074FF40
:1036B000C004B9D4D9F80000DDE000BF6FF06002AB
:1036C00002EA411200234FF67F370021EE18C6F8B8
:1036D0000879D6F80059803325F40015C6F800594A
:1036E000C6F8087BD6F8005B9A4225F40015C6F8A8
:1036F000005BD6F8005B01F1040145F00065C6F8F7
:10370000005BC6F82879D6F8205925F40015C6F8CC
:103710002059C6F8287BD6F8205B25F40015C6F89A
:10372000205BD6F8205B45F00065C6F8205BC6F844
:103730004879D6F8405925F40015C6F84059C6F81E
:10374000487BD6F8405B25F40015C6F8405BD6F8F8
:10375000405B45F00065C6F8405BC6F86879D6F86E
:10376000605925F40015C6F86059C6F8687BD6F88C
:10377000605B25F40015C6F8605BD6F8605B45F029
:103780000065C6F8605B059DA0D1002847D005F50F
:10379000106202EB41134FF67F374E019F6095593F
:1037A000059B25F4001503F53063955103EB411596
:1037B000AF609D59012825F400159D519D5945F094
:1037C00000659D512BD04E1C02EB46147501A7607D
:1037D000545903EB461624F400145451B7605F5952
:1037E000022827F400175F515F5947F000675F51C7
:1037F00015D0881C02EB40174FF67F364101BE60A2
:10380000575803EB401027F400175750866058585C
:1038100020F400105850585840F000605850049F51
:103820008421F869442240F00110F86199F80F00F2
:1038300000284FF00B0008BF142108BF42F22B00F4
:103840007B5808BF102218437850B85840F00B003E
:10385000B850386809F29C4220F4FE603860D9F80C
:10386000000099F8061004F0D5FBD9F80000416972
:1038700001F48051416104F08FFE0146D9F8000047
:1038800089041AD503F0B4FFD9F8000004F048FE0B
:10389000D9F8004089F8070000F0E4FC99F8072007
:1038A0000146204605F098F8484600F075FAD9F828
:1038B0000000416901F40051416104F06DFE000710
:1038C00006D4D9F8000004F067FE00060DD437E0F6
:1038D000484600F07BFAD9F80000416901F0080180
:1038E000416104F059FE00062AD50599886920F047
:1038F0008000886199F80400022821D309F5157425
:1039000009F11405012640F27B2704E001368642C6
:1039100007F1240714D219F807100129F6D106F08F
:103920000F0000EBC0023006D9F8000005EB820161
:1039300058BF04EB820104F003FD99F80400E5E7A9
:10394000D9F8000004F028FEC0024BD4D9F80000DA
:1039500004F022FE059D80027CD599F8041002290E
:1039600026D305F53260013909F51F72012304E001
:103970002030013902F124021AD007681678012E8E
:10398000F6D1B7F1FF3FF3DCD9F8D46486EA1747E4
:10399000FF07EDD102F8013CAF6947F08007AF6146
:1039A0006F693F06E4D40499486840F400704860A9
:1039B000D9F80000416901F40011416104F0ECFD07
:1039C00040004DD54846FFF7B1FAD9F800004169EB
:1039D00001F08041416104F0DFFD40077FF5E1AB7C
:1039E00045E000BF99F80400022827D3059909F1A2
:1039F000140401F5126509F13B064FF00108012797
:103A000006E000BF01372035874206F1240615D2B3
:103A100029687278012AF5D1B1F1FF3FF2DC07F095
:103A20000F0000EBC001D9F8000004EB810186F81B
:103A3000008004F085FC99F80400E3E7D9F8000061
:103A4000416901F48011416104F0A6FD059D8002E9
:103A50003FF583AFD9F8000004F09EFD4000B1D4DB
:103A6000D9F8000004F098FD40077FF59AABD9F82B
:103A700000004468610704D54846FFF771FAD9F899
:103A8000000041682143416007B0BDE8F08F0000AD
:103A9000D0F8E00403F05EBAD0F8E00403F070BAA6
:103AA000002804BF01207047F0B581B004460568C6
:103AB00090F8950428B9002084F89404204600F07A
:103AC00027F90320B5F1A04F84F8950404BF002026
:103AD000A071206804F096FA94E80F00267C009606
:103AE00003F096FE002840F000812068002104F0D9
:103AF000ADFD002840F0F98094F804E0BEF1000F1D
:103B000000F0EC800EF0030CBEF1040F4FF0000249
:103B100040D30EF0FC03A4F190000321012500BF67
:103B2000CE1E80F8A460A0F8BE608E1E80F8C8602B
:103B3000A0F8E2604E1E80F8EC60A0F8066180F804
:103B40001011A0F82A110E1D013180F8A55080F83F
:103B5000A820C0E92B22C0F8B42080F8C95080F812
:103B6000CC20C0E93422C0F8D82080F8ED5080F88D
:103B7000F020C0E93D22C0F8FC2080F8115180F807
:103B80001421C0E94622C0F82021903099423146E4
:103B9000C6D1F21EBCF1000F31D004F1140002EBCB
:103BA000C20100EB8105012300F821200021BCF1B6
:103BB000010F6B706A832971C5E9021129611ED05A
:103BC000551C05EBC50600EB8607BCF1020F7B70A8
:103BD00000F826507D833971C7E9021139610ED092
:103BE000911C01EBC10200EB8203012500F82210B9
:103BF00000205D7059831871C3E902001861BEF19D
:103C0000000F6BD0BEF1040F4FF0000236D30EF060
:103C1000FC000321234600BFCF1E83F854728F1E81
:103C200083F878724F1E83F8C0120D1D013183F89E
:103C3000552283F85822C3E99722C3F8642283F8F7
:103C4000792283F87C22C3E9A022C3F8882283F872
:103C50009D2283F89C7283F8A022C3E9A922C3F8AD
:103C6000AC2283F8C12283F8C422C3E9B222C3F88C
:103C7000D022903381422946CED1EA1EBCF1000FFA
:103C80002CD004F5157002EBC20300EB8307002172
:103C9000BCF1010F797000F823203971C7E90211D6
:103CA00039611BD0531C03EBC30700EB8706BCF143
:103CB000020F717000F827303171C6E902113161CD
:103CC0000CD0911C01EBC10200EB820300275F7056
:103CD00000F822101F71C3E902771F6194E80F00FA
:103CE000277C009703F032FF30B1022084F895045E
:103CF000012001B0F0BD00BF00206074012084F8F5
:103D00009504206803F012FF002001B0F0BD000010
:103D1000B0B586B000680021C4F2040100248842D6
:103D2000CDE90444CDE90244019401D006B0B0BD10
:103D300043F630050094C4F20205286801A940F05A
:103D400002002860286800F00200009000984FF4FC
:103D5000404001900220CDE90204032004900C2091
:103D6000059040F20040C4F20200FDF751FF0094BC
:103D70002868052140F0005028602868002200F0E3
:103D80000050009000984D20FFF726F84D20FFF7D7
:103D900011F806B0B0BD000010B50446C07928B1D6
:103DA000022801D0FCF702FF012100E00021D4F835
:103DB000E00403F06DF9D4F8E004BDE8104003F02E
:103DC0001BB90000D0F8E00403F048B9D0F8E004D3
:103DD00003F04EB990F89424012A04BF02207047E2
:103DE00010B5012280F894244174026804461046FC
:103DF00004F0E0FD002084F8940410BDD0F8E02425
:103E000000F29C41104603F059B9000010B5044679
:103E100090F89404012804BF022010BD20680121FD
:103E200084F89414C168490606D5617B012903D141
:103E3000816B41F48031816304F00AFB206803F058
:103E400065FE002084F8940410BD000010B50446FF
:103E5000D0F8E00403F088F92068D0F8001E41F0A3
:103E60000101C0F8001EE07A002808BF10BD4EF620
:103E70001050CEF20000016841F00601016010BD53
:103E8000F0B581B00446006843F6700610F0430FA9
:103E9000C4F2020633D06827C4F2472700203860F6
:103EA000FDF78CFF054600BF56F8700C000105D5E4
:103EB000FDF784FF401B0228F6D9AFE02068C10758
:103EC0006AD1810771D4400608D5E168D4E90102BE
:103ED000090641EA801040EA0270706101203860F2
:103EE000FDF76CFF054600BF56F8700C000105D4C5
:103EF000FDF764FF401B0228F6D98FE0206810F020
:103F00000C0F68D06827C4F247270020B860FDF77F
:103F100055FF054656F8700C800005D5FDF74EFF9D
:103F2000401B0228F6D979E02068410713D5B16912
:103F3000D4E9042301F0E04141EA821141EA03613E
:103F4000256AB161F1696FF0FF0221F4F85102EBCB
:103F500005221143F16100070FD5B069216900F016
:103F60007060A26940EA811040EA0270636AB06141
:103F7000F06920F440301843F0610120B860FDF78B
:103F80001DFF054656F8700C800023D4FDF716FF80
:103F9000401B0228F6D941E0D4E90112120742EA97
:103FA0008111716181077FF58EAF7169626801F0DF
:103FB000E041E36841EA821141EA0361E569716128
:103FC000F1696A1E21F01F011143F16140063FF5BE
:103FD0007CAF83E72068810654D50020009056F816
:103FE000300C47F2000740F0805046F8300C56F88D
:103FF000300CC4F2000700F0805000900098386840
:1040000040F480703860FDF7D9FE05463868C00579
:1040100008D4FDF7D3FE401B0228F7D9032001B0D6
:10402000F0BD00BF306810F4407013D0A16A01F4F5
:10403000407188420ED0306840F64061C4F247219A
:10404000012220F440700A6000220A60306030686B
:10405000C00725D12068A16A56F8682C4FF6FF47A3
:1040600001F4407322F4F812C0F6FF770F40B3F565
:10407000407F08BF3A4346F8682C32686FF31F311F
:1040800011433160C00607D594F82C0040F640611A
:10409000C4F24721C1F8A003002001B0F0BD00BF69
:1040A000FDF78CFE054641F2883730688007D1D491
:1040B000FDF784FE401BB8424FF00300F5D9ECE752
:1040C000002804BF012070472DE9F04143F608089D
:1040D000C4F202080446D8F8F8030D4600F00F00B9
:1040E000814207D988F8F853D8F8F80300F00F0098
:1040F000A84277D12068810717D5410705D5D8F8A0
:10410000001041F4E051C8F80010010705D5D8F8B7
:10411000001041F46041C8F80010D8F80010A268FF
:1041200021F0F0011143C8F80010C00740D1D8F8C1
:10413000F80300F00F00854207D288F8F853D8F84A
:10414000F80300F00F00A8424CD12068410707D5C2
:10415000D8F80010E26821F4E0511143C8F80010CB
:10416000000708D5D8F80000216920F4604040EA33
:10417000C100C8F8000000F0A3F8D8F800104AF613
:10418000B032C1F30311C0F60102515C40F6D072A7
:1041900020FA01F140F20400C2F200000068C2F20D
:1041A00000021160FEF7D6FA0020BDE8F08100BFE2
:1041B0006068811E022907D258F8081C89015CBF7B
:1041C0000120BDE8F08111E0012807D158F8081C52
:1041D00089035CBF0120BDE8F08107E058F8081CA6
:1041E000890703D40120BDE8F08100BFD8F8001092
:1041F00021F003010843C8F80000FDF7DFFD064683
:1042000041F28837D8F80000616800F00C00B0EB8C
:10421000810F8CD0FDF7D2FD801BB842F2D903206C
:10422000BDE8F0810F22026043F60802C4F20202E8
:10423000136803F003034360136803F0F003836023
:10424000136803F4E053C360D2F800C04FF4E053A6
:1042500003EADC030361D2F8F80300F00F00086002
:104260007047000040F6D070C2F20000006870474E
:1042700040F6D07043F60801C2F20000C4F2020119
:10428000006809684AF6C032C1F38221C0F6010213
:10429000515CC8407047000040F6D07043F60801FA
:1042A000C2F20000C4F20201006809684AF6C03296
:1042B000C1F34231C0F60102515CC84070470000B2
:1042C00010B543F60404C4F202046168C1F381012D
:1042D00042F20040C0F2F400DFE801F002040A02FA
:1042E00010BD00BF47F64000C0F27D1010BD00BFFA
:1042F000206821682368490247F64001C0F27D1119
:1043000000F03F02C3F388105CBF42F20041C0F2EC
:10431000F401A1FB00010023FBF7F8FF2168022252
:10432000C1F3014102EB4101B0FBF1F010BD00000F
:10433000002804BF012070472DE9F04182B00446F7
:10434000007843F60006C007C4F202060CD0B0683D
:1043500000F00C00042840F081803068800303D511
:104360006068002800F06881207880071BD5B0685D
:1043700010F00C0F09D0B06800F00C00082840F0D5
:1043800087807068400200F183803068800703D521
:10439000E068012840F050813068216920F0F80081
:1043A00040EAC10030602078000713D4207840072D
:1043B0002AD4A569002D00F03A81B06800F00C0005
:1043C000082840F0A580012D40F00E81012002B0A8
:1043D000BDE8F0816069002800F082800020C4F20E
:1043E00047200121C0F8801EFDF7E8FC054600BF0C
:1043F000706F8007DAD4FDF7E1FC401B0228F7D983
:10440000032002B0BDE8F081306C5FEAC0080AD436
:1044100000200190306C40F080503064306C00F02F
:1044200080500190019847F20007C4F200073868F5
:10443000C00547D4386840F480703860FDF7BEFC92
:10444000054600BF3868C0053CD4FDF7B7FC401BEB
:104450000228F7D9032002B0BDE8F081B06800F06F
:104460000C00082803D1706840023FF576AF616800
:104470003068B1F5803F07D0B1F5A02F40F09A80A9
:1044800040F480203060306840F4803030609AE042
:10449000E068002840F20000C4F247205CD001210F
:1044A0000160FDF78BFC0546306880073FF574AF6F
:1044B000FDF784FC401B0228F6D9032002B0BDE8BA
:1044C000F08100BFA168306F012905D0052955D1C1
:1044D00040F004003067306F40F00100306756E074
:1044E0000020C4F247200021C0F8801EFDF766FCC2
:1044F000054600BF706F80077FF558AFFDF75EFC83
:10450000401B0228F6D9032002B0BDE8F08100BFAD
:104510000027C4F2472700203866FDF74FFC022D24
:1045200005460DD13068800140F18A80FDF746FCD8
:10453000401B02284FF00300F4D902B0BDE8F0811F
:104540003068800173D5FDF739FC401B02284FF01D
:104550000300F5D9F1E700BF00210160FDF72EFC53
:10456000054600BF306880077FF51DAFFDF726FCCC
:10457000401B02284FF00300F4D9DEE720F00100D1
:104580003067306F002920F0040030677AD0FDF7E3
:1045900015FC054641F28837306F800700F18480B2
:1045A000FDF70CFC401BB842F6D9032002B0BDE871
:1045B000F08100BF20F4803030603068002920F4A2
:1045C000802030607AD0FDF7F9FB05463068800323
:1045D0003FF5CAAEFDF7F2FB401B6428F6D9032075
:1045E00002B0BDE8F08100BF7068E16900F48002AC
:1045F0008A4221D1216A00F03F028A421CD147F64B
:10460000C071626A0140B1EB821F15D1A16A4FF6F9
:10461000FF73C903994300F44032A1F580318A4207
:104620000AD1E16A00F07060B0EB016F04D10020A4
:1046300002B0BDE8F08100BF012002B0BDE8F0810A
:1046400004F11C052FCD084340EA8210D9034FF630
:10465000FF729143A1F5803140EA05600843706024
:1046600001203866FDF7AAFB044600BF30688001D0
:10467000DDD4FDF7A3FB001B02284FF00300F5D9A2
:104680005BE700BFFDF79AFB054641F2883700BFA4
:10469000306F800708D5FDF791FB401BB8424FF003
:1046A0000300F5D949E700BFB8F1000F3FF581AE2F
:1046B000306C20F0805030647BE600BFFDF77EFB5D
:1046C000054600BF306880037FF54EAEFDF776FBF0
:1046D000401B64284FF00300F4D92EE7002804BFE4
:1046E00001207047B0B5044690F82C000D4628B95B
:1046F000002084F82D00204600F012F8022084F8F3
:104700002C002068211DFCF757FAD4E90002294645
:10471000FCF7D2FA012084F82C000020B0BD000084
:104720002DE9F04786B041F2CC60C2F2000001787A
:10473000002600290596CDE903660296019660D110
:104740004FF0010A80F800A043F638000096C4F24A
:104750000200016840F6000441F0010101600068B8
:10476000C4F2020400F00100009000984FF63F00F0
:1047700001AD01904FF002084FF003090C2704F53A
:1047800040602946CDE90286CDF810900597FDF7E7
:104790003FFA20462946CDE901A8CDE903690597EE
:1047A000FDF736FA48F23310CDE9010804F58050E0
:1047B0002946CDE903690597FDF72AFA4FF683707C
:1047C000CDE9010804F500602946CDE903690597A4
:1047D000FDF71EFAC020CDE9010804F5A0502946D6
:1047E000CDE903690597FDF713FA4CF20370CDE9A3
:1047F000010804F580602946CDE903690597FDF7B6
:1048000007FA06B0BDE8F08790F82C20022A04BF12
:104810000220704790F82C20012A4FF001020ED19F
:10482000B0B5022280F82C2002680446104601250B
:10483000FCF702FA002284F82C50BDE8B040104684
:104840007047000090F82C30022B04BF0220704704
:1048500003F0FB03012B4FF0010313D170B50223CA
:1048600080F82C3003680546184601260C46FCF7F4
:10487000EDF920680023022808BF052685F82C6082
:10488000BDE870401846704770B528B1416A29B13B
:1048900000210161142106E0012070BD4168B1F5DD
:1048A000827F02D01C21002242500026866290F8AE
:1048B000511029B980F85060054600F03DF82846AF
:1048C000022180F8511090E82E0002F482720C68E8
:1048D00003F4044324F040040C601A4405F400631C
:1048E00005691A4405F0020345691A4405F00103FD
:1048F0008569C4691A4405F400731A4404F0380346
:10490000046A1A4404F08003846A1A4304F40053CE
:104910001A430A60436A042202EA154203F01003B4
:104920001A444A60CA6922F40062CA6101214665DC
:1049300080F85110304670BD80B586B045F2000158
:104940000068C4F20101002288420592CDE90322E9
:104950000292019202D006B080BD00BF43F6300043
:104960000092C4F20200436943F480134361436937
:1049700003F480130093009B0092036843F020032C
:104980000360006800F02000009000984FF4607011
:1049900001900220CDE90202032004900520059039
:1049A00001F5444001A9FDF733F906B080BD0000D0
:1049B0002DE9F04182B0044690F8510001281AD147
:1049C00000294FF0010018BF002A03D102B0BDE852
:1049D000F08100BF60681D461746B0F5827F03D1A5
:1049E000A068002800F0BC800E46FDF7E7F994F8B7
:1049F0005010012904D1022002B0BDE8F08100BFAF
:104A00008046012084F850000420002184F85100E1
:104A10006165A663A787E7872163A186E186A2680F
:104A20002068B2F5004F2164616437D001684906FF
:104A30003FD5E168E08F002943D000287AD0681C78
:104A40000BD11AE0C068A16B21F8020BA163E08FC3
:104A50000138E087E08F00286CD020688168C907A2
:104A6000F0D1FDF7ABF9A0EB0800A842F2D342E089
:104A7000FDF7A4F9E08F00285CD020688168C907A1
:104A8000F6D0C068A16B21F8020BA163E08F01385A
:104A9000E087E08F0028F0D14CE000BF016821F0F2
:104AA00040010160016821F480410160016849060C
:104AB000BFD4016841F040010160E168E08F002946
:104AC000BBD1B8B3681C0CD124E000BF007BA16B44
:104AD0000870A06B0130A063E08F0138E087E08FA1
:104AE00040B320688168C907F0D1FDF767F9A0EBF2
:104AF0000800A842F3D3012084F85100002084F874
:104B00005000032002B0BDE8F08100BFFDF756F968
:104B1000E08F78B120688168C907F7D0007BA16B6E
:104B20000870A06B0130A063E08F0138E087E08F50
:104B30000028EFD16068B0F5827F0ED1A068B0F593
:104B4000004F02D0B0F5806F16D12168B0F5806FAC
:104B50000A6822F040020A600ED1204601210DE0D1
:104B6000042084F8510020460A463B46009500F098
:104B700059F902B0BDE8F0812046802100222B4681
:104B8000CDF8008001F026FA28B1606D40F02000D9
:104B9000606520206065012084F85100002084F8C1
:104BA0005000606D002818BF012002B0BDE8F08100
:104BB0002DE9F04184B01D4616460F460446FDF728
:104BC000FDF894F8511001290ED18046002F4FF0C6
:104BD000010018BF002E03D104B0BDE8F08100BF72
:104BE00094F85000012803D1022004B0BDE8F08100
:104BF000012084F850000320002184F851006165F1
:104C00002763A686E686A163A187E187A068216461
:104C1000B0F5004F2068616407D1016821F04001C0
:104C20000160016841F4804101600168490603D4D4
:104C3000016841F0400101606168731EE268B1FAE9
:104C400081F1B3FA83F349095B09B2F5006F41EAD8
:104C5000030139D131B137F8021BC1602763E08EFF
:104C60000138E086E08E002870D0681C0BD11AE075
:104C7000216B31F8022BC2602163E08E0138E0869F
:104C8000E08E002862D0206881688907F0D4FDF7A3
:104C900095F8A0EB0800A842F2D338E0FDF78EF8B3
:104CA000E08E002852D0206881688907F6D5216BF4
:104CB00031F8022BC2602163E08E0138E086E08E7D
:104CC0000028F0D142E000BF39B139780173206B80
:104CD00001302063E08E0138E086E08EB0B3681CBE
:104CE0000BD123E0216B09780173206B0130206325
:104CF000E08E0138E086E08E40B320688168890745
:104D0000F0D4FDF75BF8A0EB0800A842F3D3012034
:104D100084F85100002084F85000032004B0BDE85E
:104D2000F08100BFFDF74AF8E08E78B12068816815
:104D30008907F7D5216B09780173206B0130206357
:104D4000E08E0138E086E08E0028EFD12046022177
:104D500001222B46CDF8008001F03CF9E0B1606DF6
:104D600040F02000606520206065A06838B9002010
:104D700002902068C1680291806802900298012028
:104D800084F85100002084F85000606D002818BF9E
:104D9000012004B0BDE8F08140F6D070C2F20000FE
:104DA000006849F68171C1F25E61A0FB0101480D06
:104DB0004FF47A71484303906068B0F5827F0BD15D
:104DC0002046802100222B46CDF8008001F002F918
:104DD0000028C4D1C9E700BF03980028C5D00398B4
:104DE00001380390206881680906BED5039900291F
:104DF000BBD003990139039181680906B5D50399A0
:104E00000029B2D003990139039181680906ACD514
:104E100003990029A9D003990139039180680006FC
:104E2000DAD4A2E72DE9F04383B01E4615460F46BB
:104E30000446FCF7C3FF94F851108146012909D1BB
:104E4000002F4FF0010018BF002D0FD103B0BDE8B7
:104E5000F08300BF6068B0F5827F0DD104294FF068
:104E60000200F3D1A1680029EAD0EFE7002EEDD0CF
:104E700094F85000012803D1022003B0BDE8F0836C
:104E8000012084F8500094F85100002104281CBF30
:104E9000052084F851006165A563E687A68727632E
:104EA000E6862068A686216461640168490603D409
:104EB000016841F0400101606168731EE268B1FA67
:104EC00081F1B3FA83F3DDF8288049095B09B2F573
:104ED000006F41EA030165D131B137F8021BC160AF
:104EE0002763E08E0138E086012518F1010032D1F8
:104EF00002E000BFFCF762FFE08E18B9E08F0028E7
:104F000000F0B8802068816889070CD5E18E51B126
:104F1000012D08D1216B002531F8022BC2602163DD
:104F2000E18E0139E1868168C907E3D0E18F00296C
:104F3000E0D0C068A16B012521F8020BA163E08FCE
:104F40000138E087D6E700BFFCF738FFA0EB090087
:104F5000404580F0A580E08E18B9E08F002800F071
:104F600089802068816889070CD5E18E51B1012DB7
:104F700008D1216B002531F8022BC2602163E18E3C
:104F80000139E1868168C907DED0E18F0029DBD0D5
:104F9000C068A16B012521F8020BA163E08F0138E5
:104FA000E087D1E739B139780173206B0130206394
:104FB000E08E0138E086012518F1010032D101E0D0
:104FC000FCF7FCFEE08E10B9E08F002852D020687C
:104FD000816889070ED5E18E61B1012D0AD1216B5F
:104FE000002509780173216B206801312163E18E6E
:104FF0000139E1868168C907E2D0E18F0029DFD05D
:10500000C068A16B01250870A06B0130A063E08F20
:105010000138E087D4E700BFFCF7D0FEA0EB090021
:1050200040453DD2E08E08B9E08F18B32068816812
:1050300089070ED5E18E61B1012D0AD1216B0025C2
:1050400009780173216B206801312163E18E0139F8
:10505000E1868168C907DFD0E18F0029DCD0C06814
:10506000A16B01250870A06B0130A063E08F0138AF
:10507000E087D1E72046022101224346CDF8009087
:1050800000F0A8FFB0B1606D40F020006065202006
:105090006065002084F85000012003B0BDE8F08373
:1050A000012084F85100002084F85000032003B050
:1050B000BDE8F08340F6D070C2F20000006849F607
:1050C0008171C1F25E61A0FB0101480D4FF47A715C
:1050D000484302906068B0F5827F0BD12046802162
:1050E00000224346CDF8009000F074FF0028CAD19A
:1050F00021E000BF0298F0B10298013802902068C8
:105100008168090617D50299A9B10299013902915E
:10511000816809060FD5029969B102990139029196
:105120008168090607D5029929B1029901390291CE
:1051300080680006DED4A06838B90020019020689D
:10514000C1680191806801900198012084F85100A4
:10515000002084F85000606D002818BF012003B0C3
:10516000BDE8F0837047000070470000002804BFCE
:105170000120704710B5044690F83D0028B9002082
:1051800084F83C00204600F01FF8022084F83D001F
:105190002068211D01F056F8012084F8460084F8AB
:1051A0003E0084F83F0084F8400084F8410084F811
:1051B000420084F8430084F8440084F8450084F8F1
:1051C0003D00002010BD00007047000090F83D1029
:1051D00001291CBF01207047022180F83D100068A2
:1051E00041F2FF72C168C4F20002904241F0010135
:1051F000C1600DDC40F2FF71C4F20001884215DC91
:10520000B0F1804F2AD040F20041C4F2000123E007
:1052100040F2FF31C4F20101884213DC41F6000183
:10522000C4F20001884219D0002113E040F60001C9
:10523000C4F20001884211D040F60041C4F20001DE
:105240000AE000BF44F20001C4F20101884205D027
:1052500040F20041C4F20101884206D1816801F0A8
:105260000701062904BF00207047016841F00101D1
:1052700001600020704700007047000070B50446D0
:105280000068C5680669B10716D515F0020113D08C
:105290006FF002010161012121778069800703D04D
:1052A0002046FFF7E9FF05E0204600F08FF8204692
:1052B00000F08EF800202077700719D515F0040053
:1052C00016D020686FF00401016102212177806906
:1052D00010F4407F04D02046FFF7CEFF06E000BF69
:1052E000204600F073F8204600F072F80020207786
:1052F000300717D515F0080014D020686FF00801AA
:10530000016104212177C069800703D02046FFF79F
:10531000B3FF05E0204600F059F8204600F058F8A9
:1053200000202077F00619D515F0100016D020685F
:105330006FF01001016108212177C06910F4407FEE
:1053400004D02046FFF798FF06E000BF204600F09B
:105350003DF8204600F03CF800202077F00718BF09
:1053600015F0010002D1300609D412E020686FF078
:1053700001010161204600F02DF8300609D515F035
:10538000800006D020686FF0800101612046FFF7A1
:10539000E9FE700609D515F0400006D020686FF0D0
:1053A00040010161204600F01FF8B00658BF70BDF3
:1053B00015F0200008D021686FF0200220460A6115
:1053C000BDE87040FFF7D0BE70BD00007047000020
:1053D00070470000006841F20001C4F200018842F9
:1053E00018BF7047FDF78CB970470000012005F029
:1053F000FBFB00BFFEE700002DE9F04383B004464D
:1054000000680F4601680A9D0B9E41F48071994621
:105410009046016020464FF0011100222B46009675
:1054200000F0ACF850B120680068C00544BF4FF4EC
:1054300000702064032003B0BDE8F083206807F00B
:10544000FE0101610221C0F2010120462A463346D5
:1054500000F07AF920B1012003B0BDE8F08300BF6D
:1054600000200290206832464169029180692946F5
:1054700002900298204600F01BFA58B1206C0428D4
:10548000E9D12068016841F400710160012003B096
:10549000BDE8F0832068B9F1010F0AD04FEA182166
:1054A000016120462946324600F002FA0028E5D183
:1054B00020685FFA88F10161002003B0BDE8F08345
:1054C00070B50368044653F8140F400711D40E4614
:1054D000481C29D086BB00BF1868400527D4FCF7BC
:1054E0006DFC236853F8140F400737D51868400740
:1054F000F2D5002070BD00BF18684007F9D41868C5
:10550000400514D418684007F3D4186840050ED439
:1055100018684007EDD41868400508D4186840079B
:105520004FF0000048BF70BD18684005E4D56FF427
:1055300080601860042012E0154603E053F8140F51
:105540004007D6D418684005F1D4FCF737FC401B5F
:105550002368B042F2D958694007EFD420200021D7
:105560002022216384F83D2084F83E10226C1043F1
:105570002064012084F83C1070BD00002DE9F0414A
:10558000054600681E46144601F47F0201338FB2BF
:1055900042D0DDF81880B2F5803F40F08780406946
:1055A0003840C01BB0FA80F04009844240F0C88007
:1055B0004EB924E040693840C01BB0FA80F0400981
:1055C000844240F0BD80FCF7F9FBA0EB080128689D
:1055D000B142EFD941693940C91BB1FA81F149099A
:1055E0008C42E7D19BE000BF40693840C01BB0FA55
:1055F00080F0400984424FF0000040F0A280FCF7A8
:10560000DDFB286841693940C91BB1FA81F14909BC
:105610008C42E9D183E000BFB2F5803F24D100BFC6
:1056200041693940C91BB1FA81F149098C4240F006
:10563000878041693940C91BB1FA81F149098C421F
:1056400040F07E8041693940C91BB1FA81F14909B6
:105650008C4275D141693940C91BB1FA81F14909C0
:105660008C42DDD06CE000BF81693940C91BB1FAC2
:1056700081F149098C4263D181693940C91BB1FA72
:1056800081F149098C425BD181693940C91BB1FA6A
:1056900081F149098C4253D181693940C91BB1FA62
:1056A00081F149098C42DFD04AE000BF806938406F
:1056B000C01BB0FA80F04009844241D146B923E0D2
:1056C00080693840C01BB0FA80F04009844237D16D
:1056D000FCF774FBA0EB08012868B142F0D981699E
:1056E0003940C91BB1FA81F149098C42E8D116E071
:1056F00080693840C01BB0FA80F0400984424FF006
:10570000000018BFBDE8F081FCF758FB28688169EC
:105710003940C91BB1FA81F149098C42E8D1002016
:105720002021286385F83D1085F83E00296C41F062
:105730002001296485F83C000120BDE8F08100BF0C
:105740000020BDE8F0810000F0B581B0044600689B
:105750001D4643698FB203EA0701B94202D1002016
:1057600001B0F0BD4169164601323CD0490512D462
:105770007EB300BFFCF722FB411B2068B14203D976
:1057800041693940B9422BD141693940B942E6D02B
:1057900041694905EED5016841F4007101606FF47B
:1057A00080614161042000212022216384F83D2092
:1057B00084F83E10226C1043206484F83C100120D1
:1057C00001B0F0BD41693940B942C8D041694905CD
:1057D000E1D4FCF7F3FA206841693940B942F1D0CD
:1057E0002020E0E741694905D5D441693940B942F3
:1057F000B5D041694905CED441693940B942AED0EE
:1058000041694905C7D441693940B942A7D04169C6
:105810004905C0D441693940B942E3D19FE700004E
:1058200070B504460068154650F8143F5A063DD43A
:105830000E4629B926E000BF50F8141F490635D49A
:105840000168C90621D4FCF7B9FA411B2068B142AE
:10585000F2D941694906EFD400202021206384F861
:105860003D1084F83E00206C40F0200018E000BF9E
:10587000FCF7A4FA206850F8141F4906ECD501681B
:10588000490613D40168C906F2D56FF01001016012
:1058900000202021206384F83D1084F83E00206C15
:1058A0002064002084F83C00012070BD002070BD01
:1058B00070B50368044653F8140F000611D40E4661
:1058C000481C29D086BB00BF1868400527D4FCF7C8
:1058D00075FA236853F8140F000637D518680006C8
:1058E000F2D5002070BD00BF18680006F9D4186812
:1058F000400514D418680006F3D4186840050ED487
:1059000018680006EDD41868400508D41868000629
:105910004FF0000048BF70BD18684005E4D56FF433
:1059200080601860042012E0154603E053F8140F5D
:105930000006D6D418684005F1D4FCF73FFA401BA6
:105940002368B042F2D958690006EFD42020002124
:105950002022216384F83D2084F83E10226C1043FD
:105960002064012084F83C1070BD000044F2F01067
:10597000C2F20000FCF792BF44F2F010C2F2000045
:10598000FCF78CBFF0B50468D1E900CE04EBC2107F
:105990008B68CD68E668D0F88820002702F4704252
:1059A000C0F88820E268C0F6FF77C2F30B423E40A1
:1059B000624406EB0E4601323243C0F88820E268AA
:1059C000D0F88C606FF3DF2206F47046C0F88C606C
:1059D000E4682A446FF3DF242344013343EA02429C
:1059E000C0F88C20D0F8942022F00702C0F8942050
:1059F0000B69C0F8943091F8322091F831401204CC
:105A00008D6991F8306042EA042242EA056232442C
:105A1000C0F89C20D0F8982040F2077422F0FF02D2
:105A2000C0F898204A69072BC0F89820D0F8A02029
:105A300022EA0402C0F8A020D1E9074500F184025F
:105A400044EA0504C0F8A0404C6AC0F8AC4007D84E
:105A50004DF61800C0F6010050F8230001E000BF29
:105A60000120D36AAEEB0C0703F0E023D362D1E947
:105A70000A1341437843033040EA0140D062106B7F
:105A800040F2FF71884310631363106840F0010017
:105A90001060F0BD80B544F240000021C2F2000069
:105AA000C5F2050100222023026280E80E00C0E951
:105AB0000322C0E90522FBF7FDF9002808BF80BDDD
:105AC000BDE88040FBF772B880B582B0002001903D
:105AD00043F63000C4F202000168002241F4800164
